:020000040000fa
:080000000002040000000000f2
:020000040000fa
:100008009a0200009a0200009a0200009a02000078
:100018009a0200009a0200009a0200009a02000068
:100028009a0200009a0200009a0200009a02000058
:100038009a0200009a0200009a0200009a02000048
:10004800e21300009a0200009a0200009a020000df
:100058009a0200009a0200009a0200009a02000028
:100068009a0200009a0200009a0200009a02000018
:100078009a0200009a0200009a0200009a02000008
:100088009a0200009a0200009a0200009a020000f8
:100098009a0200009a0200009a0200009a020000e8
:1000a8009a0200009a0200009a0200009a020000d8
:1000b8009a0200009a0200009a0200009a020000c8
:1000c8009a0200009a0200009a0200009a020000b8
:1000d8009a0200009a0200009a0200009a020000a8
:1000e8009a0200009a0200009a0200009a02000098
:1000f8009a0200009a0200009a0200009a02000088
:100108009a0200009a0200009a0200009a02000077
:100118009a0200009a0200009a0200009a02000067
:100128009a0200009a0200009a0200009a02000057
:100138009a0200009a0200009a0200009a02000047
:100148009a0200009a0200009a0200009a02000037
:100158009a0200009a0200009a0200009a02000027
:100168009a0200009a0200009a0200009a02000017
:100178009a0200009a0200009a0200009a02000007
:100188009a0200009a0200009a0200009a020000f7
:100198009a0200009a0200009a0200009a020000e7
:1001a8009a0200009a0200009a0200009a020000d7
:1001b8009a0200009a0200009a0200009a020000c7
:1001c8009a0200009a0200009a0200009a020000b7
:1001d8009a0200009a0200009a0200009a020000a7
:1001e8009a0200009a0200009a0200009a02000097
:0801f8009a0200009a020000c7
:020000040000fa
:100208009a0200009a0200009a0200009a02000076
:100218009a0200009a0200009a0200009a02000066
:100228009a0200009a0200009a0200009a02000056
:100238009a0200009a0200009a0200009a02000046
:10024800e21300009a0200009a0200009a020000dd
:100258009a0200009a0200009a0200009a02000026
:100268009a0200009a0200009a0200009a02000016
:100278009a0200009a0200009a0200009a02000006
:100288009a0200009a0200009a0200009a020000f6
:100298009a0200009a0200009a0200009a020000e6
:1002a8009a0200009a0200009a0200009a020000d6
:1002b8009a0200009a0200009a0200009a020000c6
:1002c8009a0200009a0200009a0200009a020000b6
:1002d8009a0200009a0200009a0200009a020000a6
:1002e8009a0200009a0200009a0200009a02000096
:1002f8009a0200009a0200009a0200009a02000086
:100308009a0200009a0200009a0200009a02000075
:100318009a0200009a0200009a0200009a02000065
:100328009a0200009a0200009a0200009a02000055
:100338009a0200009a0200009a0200009a02000045
:100348009a0200009a0200009a0200009a02000035
:100358009a0200009a0200009a0200009a02000025
:100368009a0200009a0200009a0200009a02000015
:100378009a0200009a0200009a0200009a02000005
:100388009a0200009a0200009a0200009a020000f5
:100398009a0200009a0200009a0200009a020000e5
:1003a8009a0200009a0200009a0200009a020000d5
:1003b8009a0200009a0200009a0200009a020000c5
:1003c8009a0200009a0200009a0200009a020000b5
:1003d8009a0200009a0200009a0200009a020000a5
:1003e8009a0200009a0200009a0200009a02000095
:0803f8009a0200009a020000c5
:020000040000fa
:10040000ef8f20000e7f22000e0188000000000008
:10041000000020000000e000020032000001200087
:10042000200288000c000700205a21000100200053
:1004300011000700000020000000e0000200320070
:1004400000000200000000008c0f0200000000000d
:100450000040da000000fe004440a9002016200001
:100460000000e0000300320000002000a00188002e
:100470004440a80000000600910188008000780038
:100480000000eb0015003700e280400032a0b4000d
:100490009101ba00e280400032a0b4009102ba009b
:1004a000e280400032a0b4000002eb00472bde00e7
:1004b000f507b200602ce10004003a000059eb009f
:1004c0008301e900fdff3e00040037006128e100e0
:1004d000010032000082eb00040007001101ba00a5
:1004e0000200e000e8ff3a00000006003159ba00bf
:1004f0008301e9000c0032002159ba008301e900b0
:10050000080032000400e00003003a00e2804000ee
:1005100032a0b400f5ff370011d9ba008301e90019
:10052000faff3a008100e800e180400032a0b40008
:10053000000006000040da000000fe000a00fa0099
:10054000e20f500022003e00e4478000e10f52001d
:1005500006003200872320004623200024232000a9
:1005600005232000e08f530004003a00872220007a
:10057000462220002422200005222000000028001e
:100580001500600003003a00800b78000700280087
:10059000958a7300054020009482620001003a00b1
:1005a00014a0a000820278000600370094037800af
:1005b0000710b200fdff3200b103fb00070b78000b
:1005c0008502e900e08f5200f8ff3a00080037008a
:1005d00034002000b4bf9f00c0bf9f00d1bf9f0068
:1005e000e2bf9f006a805700230407006fb997009d
:1005f000020078000080fa0000000600889fbe001c
:100600000004be00050037000000fb0089007800f0
:1006100019000700e10f4000040032003840780064
:10062000e04f5000f8ff3a000000eb004f04be001e
:1006300000000600881f7800c18d2000efff070032
:1006400000047800c18d2000a00020000a000700ef
:10065000080078004f047800000006000000fa004f
:1006600068815700cfb89700c08d20004600070072
:100670000080fa0000000600889fbe000104780098
:1006800038029000e20262008084eb003b003200fe
:10069000040378000620b2009802900002003a009d
:1006a000e08f520035003a000490a0003404980016
:1006b00080047800f90fb200e08f520002003a0087
:1006c000a8029000050c7800ea8f540005003a005b
:1006d0000408b20003003a0088007800d00020002f
:1006e000e5ff070018029000d8029000850f520025
:1006f0000b0032000402e80014049800180278008d
:10070000094a7800040ce80015c0b300648f20008b
:10071000054a7800ea8f540018003a0005003700b7
:100720008800780009407800910307008004780071
:1007300012003700380290000410b2000f0032009f
:1007400018019000a8009000480090007bff07006f
:1007500018029000840f500004003200380290000c
:100760000403b300340498008084eb000002eb0023
:100770001404980028029000040c78000900780006
:100780004f04be0000000600ef03b000889fbe00cb
:100790008a9fbe008c9fbe008e1f78008006780066
:1007a000d1af9f00a2b79f000007eb0064033700a2
:1007b000dfa897008100e800d1af9f0054c2b300ca
:1007c000844f500006003a00010278000006eb005a
:1007d00001c3b30000c2b300b7c2b3000e003700bc
:1007e0003d0290000404b200040032001d027800b3
:1007f000004a7800840ee800050037000000fb0086
:100800008d0078009cff0700e10f40004c03320090
:100810000e07e8004a03370084027800344378006a
:10082000d2c2b300824f53000900320005003c00e1
:10083000804f530008003200874f53000c003a00ed
:1008400007003700814f530009003a0006003700c7
:100850000c30a000f0ff37000c00a000eeff3700c6
:100860000c10a000ecff37000c20a000eaff3700be
:1008700062026600010032000c00a10068026600fe
:10088000010032000c20a1000602fb000403b100ad
:10089000e90f52000c003e00050378000002eb0057
:1008a0006a22b900b603fb000703b10004824300cb
:1008b000860278009603fb000703b100e98f53001e
:1008c000f7ff3600080037000002eb00a7c2b300b4
:1008d000874f530004003a00afb1970043027800fd
:1008e000a3b79f008502e8000003eb0096b79f00c6
:1008f000e6c2b300954f13000c003a000ce0a000d4
:1009000064435300d54f1300030032000503780001
:100910000000eb0009003700afb3970047047800f0
:10092000a7b79f0098b79f008502e80005037800ed
:10093000090037006a00b900008043008602780091
:10094000b603fb000703b100e98f5300f9ff36003f
:1009500090b79f00f5ff3700b6427800d6af9f00f2
:10096000cac6b3008acf5200250032000f003c00f7
:1009700036c6b30086cf52009d00320004003c0012
:10098000e0cf5200f30232006b4353000f003700f8
:1009900046c6b30086cf52001700320065434300bd
:1009a00086cf5200b0003a001300370036c7b300bc
:1009b00086cf52002000320007003c006443530001
:1009c00086cf5200150032000643e80086cf520061
:1009d000a5003a001400370056c7b30086cf520076
:1009e000a80032006343430086cf52009e003a00c5
:1009f000e5779f000e003700e5779f00a3003700e2
:100a0000f003660005012000010032000500280007
:100a10008c82720005067800cfff3700e5779f00d3
:100a20000c60a00099003700e5779f000c50a000f3
:100a30000c70a00095003700e5779f00afb59700d8
:100a4000cb027800abb79f00b5b79f00e08f520094
:100a500002003a0081822000b1b79f003fb39700a7
:100a60008002eb00010037008502e800e6c37a004f
:100a7000e0cf5300fcff3a00c5b79f001fb19700bd
:100a8000e00f510005003200cfb19700830f5100f5
:100a90000200310082027800c5b79f00cfb29700f4
:100aa0000004eb00850f52000100360005045200df
:100ab0006806660009c2b3000f0032002900370043
:100ac0003d0290000404b200040032001d027800d0
:100ad000094a7800840ee800050037008d00780090
:100ae00000022000e4fe0700e10f40000100320098
:100af0000e07e8000804e900e00f5400f0ff3a0098
:100b00000084eb0017003700bd0290000504b2001e
:100b1000090032009d037800880278003543780090
:100b2000864b7800870ee80005047800e04f5300fc
:100b30000a003a0010003700880278003500fb00f8
:100b4000050478008d00780084bf9f00cafe07006e
:100b50000fba9700e10f4000070032000e07e800cf
:100b600005003700080278003fb49700cfb4970023
:100b70005fb59700efb59700890278008504e9001a
:100b8000e08f5200e0ff3a00b8b79f00c9b79f005e
:100b9000dab79f00ebb79f000404780009c2b300e6
:100ba000e00f56000f003a00650237003d0290004a
:100bb0000404b200040032001d027800094a7800e3
:100bc000840ee800050037008d0078000002200048
:100bd000a9fe0700e10f4000010032000e07e80007
:100be0000804e900e00f5400f0ff3a005402370017
:100bf000afb0970041047800a1b79f00cfc4de00da
:100c0000090578008a0578000800be000a01be00c8
:100c10004800de00c80add0000807200e0779f0017
:100c20007003660009003200e04f500007003200f8
:100c3000e14f400005003200f0779f00887f9f0061
:100c400026002000c6b79f0003003700f8779f00fa
:100c500017002000c7b79f0078fb2f0008844700cb
:100c6000b8b79f0085ff3700e5779f0069fb2f002d
:100c700089844700b9b79f001a002000cab79f00b7
:100c80007eff3700e5779f000c0cb3008c027800e4
:100c9000050cb2003b003a00e00f560005003d0095
:100ca000afb297004501be004500be00a5b79f004a
:100cb0000f003700f0026600120032002fb49700d8
:100cc0004803be00a8b79f00f69f9f0087a79f001c
:100cd00098029000cfaade0095a79f00a5a79f00cd
:100ce0007f9897008fa097001fa19700afa1970052
:100cf000b0b79f00c1b79f00d2b79f00e3b79f0076
:100d00000b003700afb09700c1027800a1b79f0079
:100d100005047800cfc4de00090578008a05780054
:100d2000b8b79f00c9b79f00dab79f00ebb79f0025
:100d30003fb09700cfb097005fb19700efb1970039
:100d4000e00f5000e08f5800e00f5900e08f59008d
:100d500032003d003c00b3006000b8006011b800f4
:100d60003fb49700cfb497005fb59700efb59700f9
:100d700008045000898458000a0559008b855900e1
:100d800022003700e00f560005003d00afb297008b
:100d90004501be004500be00a5b79f000f0037000b
:100da000f0026600120032002fb497004803be0024
:100db000a8b79f0096af9f00a7af9f008004eb00ed
:100dc000b9af9f000005eb00caaf9f001fa89700b6
:100dd000afa897003fa99700cfa99700b0b79f0091
:100de000c1b79f00d2b79f00e3b79f000b00370049
:100df000afb09700c1027800a1b79f00050478004a
:100e0000090020000a0020000b002000b8b79f0056
:100e1000c9b79f00dab79f00ebb79f009fb4970058
:100e2000e08f54000d003a001a0020009ab79f008e
:100e30003fb09700cfb097005fb19700efb1970038
:100e4000e00f5000e08f5800e00f5900e08f59008c
:100e5000020032008000eb0091b79f000c01780087
:100e6000020cb20082b79f0005042000850f5100dc
:100e70003400320003003c00e00f51000800320053
:100e800048003700050820008fb19700858f51007a
:100e900014003200050c2000858f510041003a00fb
:100ea0008683200015c0b3003600be003601be00a8
:100eb0003fb49700cfb497005fb59700efb59700a8
:100ec0000040e10001c8e10002d0e10003d8e100e8
:100ed000330039008542e800f4cf5200f2ff3a00b7
:100ee0002f00370015c0b3000001200001002000d2
:100ef0006011b8003fb49700cfb497005fb597007a
:100f0000efb597000040e10001c8e10002d0e10028
:100f100003d8e10022003900490020000000d00081
:100f20008180d2000281d2008381d2008904e9004d
:100f3000faff3a008542e800f0cf5200edff3a0098
:100f40001700370015c0b30080002000010020000a
:100f50006011b8003fb49700cfb497005fb5970019
:100f6000efb597000040e10001c8e10002d0e100c8
:100f700003d8e1000a003900390020000000d00049
:100f80008180d2000281d2008381d2008904e900ed
:100f9000faff3a008542e800f5cf5200edff3a0033
:100fa000e5779f006f7597008a02fb009fb5970059
:100fb0008b8f520002003d00eb779f00040037004a
:100fc0001fb09700850f500001003d0095b79f00ae
:100fd000e00f520003003200e3026600010032001d
:100fe0000402e900050024008502660006003200c4
:100ff0009fb09700810f520002003400010252009e
:10100000010037000002eb006f7197008202fb00c5
:101010008001eb00f3af9f00850f52000200340007
:1010200085025200f5af9f00640266003b0032006b
:10103000e202660061026600e08f52001100320099
:10104000bd0290000504b200080032009d02780045
:10105000b6c2b300e00f52000100320006c3e80040
:10106000864a7800850ee80015003700b00220009f
:10107000e00f5200010032000080e8008d0078008f
:101080000c003700e00f52000e0032003d029000cd
:101090000404b200050032001d02780005c2b3004e
:1010a000054a7800840ee800050037008d007800be
:1010b0000002200070fd0700e10f40000100320037
:1010c0000e07e8007faa9700e00f52004f003200a1
:1010d00008c3b300840478003d0290000404b20009
:1010e000040032001d027800084a7800840ee800ef
:1010f000050037008d007800000320005efd07002a
:10110000e10f4000010032000e07e8008904e90009
:10111000f1ff3a00f9af9f003c003700ffaa9700ab
:10112000e08f5200140032006802660012003a009c
:1011300008c2b300850478003d0290000404b200a8
:10114000040032001d027800084a7800840ee8008e
:10115000050037008d0078000002200046fd0700e2
:10116000e10f4000010032000e07e8008904e900a9
:10117000f1ff3a00f9af9f00e202660061026600eb
:10118000e08f520011003200bd0290000504b20051
:10119000080032009d027800b6c2b300e00f520092
:1011a0000100320006c3e800864a7800850ee80098
:1011b00015003700b0022000e00f5200010032009d
:1011c0000080e8008d0078000c003700e00f52002e
:1011d0000e0032003d0290000404b200050032000f
:1011e0001d02780005c2b300054a7800840ee800ad
:1011f000050037008d007800000220001efd07006a
:10120000e10f4000010032000e07e8001fb3970015
:101210000602e900c223dd00c7a79f006323b900cf
:1012200006047800b8a79f004322dd000583200054
:1012300085024200e5af9f00f0046600e99f9f0031
:101240000c0578000a02b200da9f9f00a300370065
:101250009fb597008b05e9009bb79f000fb09700e3
:1012600001042000810f50007300320003003c0095
:10127000e00f5000080032007e0037000408200014
:101280000fb19700840f510056003200040c20006b
:10129000840f510077003a00e00f56001f003d0018
:1012a000efa997003304be002305be000802be006c
:1012b0000a03be003fb09700cfb097005fb1970020
:1012c000efb19700af010700e0779f000000fb003f
:1012d000cf80de0001017800820178000802be00a4
:1012e0000a03be00100207003fb29700cfb297007a
:1012f0005fb39700efb397000002520081825a005b
:1013000002035b0083835b00b4b79f00c5b79f00f7
:10131000d6b79f00e7b79f002e003700ef9a9700df
:10132000e08f5200220032003fb29700cfb2970008
:101330006fab97003604be002605be000801be0054
:101340000400be0084bf9f00f5b79f00cc000700db
:10135000e0779f000000fb00cf80de000801be00a8
:10136000d70007000fba9700ffb2970000045200a1
:1013700081845a00d8a79f00e9a79f008004eb0052
:10138000f9a79f000005eb008aaf9f005fa09700c0
:10139000efa097007fa197008fa99700b0b79f009b
:1013a000c1b79f00d2b79f00e3b79f000900370085
:1013b000efa89700110278003fb1970011000900d3
:1013c0000481d800a4002000110009000480d80086
:1013d000e1779f00ef7197000343b000e3779f0030
:1013e0002400370074812000df9a9700e08f5200bc
:1013f00001003200648020003fb09700cfb097001a
:101400005fb19700efb197004fa397000603e90083
:10141000050033008301d1000281d3008180d30015
:101420000080d300f9ff37006f006000644078004f
:10143000e0779f000f0037003fb29700cfb29700d0
:101440005fb39700efb397003fa497000804e9004b
:10145000050033008703d1000683d3008582d300c3
:101460000482d300f9ff3700674262000443b000f2
:10147000e4779f003d0290000404b20007003200b0
:101480009d0278006f729700844a7800850ee8000c
:10149000e04f520007003a0007003700ef74970052
:1014a0000900fb008d00780073fc0700e10f40008d
:1014b000010032000e07e8004fa5970064055500b3
:1014c000caa79f00bfa59700e3855500bba79f0053
:1014d0006fa8970068005000e0af9f009fb0970092
:1014e000e08f50005aff3a00680666001400320090
:1014f0007fa99700e00f51001100340008c2b3002b
:10150000820478003d0290000404b200040032001e
:101510001d027800084a7800840ee80005003700b4
:101520008d0078000002200053fc0700e10f40000e
:10153000010032000e07e8008904e900f1ff3a00db
:10154000dfa9970013407800e0779f00e04f50003c
:1015500097fc3a000e0078004f0778004f06be0057
:101560004f05be004f04be00ef03b10000000600af
:101570000200fa00889fbe00a0ff9f0001047800cf
:1015800038029000840278000504b20002003200a4
:101590000000fb0035003700e202620005003a005f
:1015a0000403b30034049800150498000080eb0095
:1015b0002e003700d8049000e08f540006003a0057
:1015c00012002000e680570048009000dbfb070077
:1015d0001904980023003700a8029000e08f520001
:1015e00008003a00958f200025049800050c78002b
:1015f0002500200055049800150498000430a00030
:101600003404980018019000a80090004800900051
:10161000cafb0700280290008082eb0015049800a6
:10162000affa9700054a7800040ce8002ffa9700fb
:10163000ea4f52000b003a00380290000410b2004a
:101640000800320018019000a800900048009000a7
:10165000bafb07000002eb0014049800a8029000f7
:10166000050c78002ffa97000400fb004f04be0021
:101670000080fa000000060000c0da00000006004a
:101680006022b800060220000000d0008180d20055
:101690000482d2008582d2000000a0000202520023
:1016a00083825a00030031000202420083824a0012
:1016b0000000a1000603e900f3ff3a000000060065
:1016c000020ab900001bb9000200b8008100420004
:1016d0008100430000000600889fbe008a9fbe0074
:1016e0003004be002005be000404440085844c0084
:1016f00006054d0087854d000898be000a90be0083
:101700000440e10005c8e10006d0e10007d8e1008f
:1017100002003100680040001008e8004f05be00dc
:101720004f04be00000006001000fa00889fbe00b3
:101730008a9fbe000605be000404be003002be0043
:101740002003be00c4b79f00d5b79f00e6b79f0037
:10175000f7b79f000802520089825a000a035b0013
:101760008b835b0084bf9f0095bf9f00a6bf9f0037
:10177000b7bf9f000498be000698be00110020006d
:101780004fb29700dfb297006fb39700ffb3970097
:101790000820e10009a8e1000ab0e1000bb8e1006f
:1017a000010039008000eb00108810004f05be00da
:1017b0004f04be000080fa00000006001400fa008a
:1017c000889fbe008a9fbe008c9fbe003f0007001e
:1017d0000605be000404be000006eb00ccb79f0067
:1017e000bcb79f00acb79f009cb79f008cb79f0011
:1017f0000d0420004fb39700bfb29700860343004b
:101800002fb29700e00f530004003d003d00070099
:101810000f004000b0ff0700030037003900070049
:101820000f004000c0ff0700cfb2970095bf9f0098
:10183000e08f5200090035002b0007001400200043
:10184000050020006033b800000072008180720043
:1018500002017300838173001c0007000c06e8007e
:101860008d0f5600e3ff3a001fba9700e00f5200b9
:1018700005003d000802be000a03be0000fe2f0066
:101880000f00400094ff07004faa9700e00f52009e
:1018900008003a000fb497009fb497002fb5970047
:1018a000bfb59700d8b79f00e9b79f00fab79f0070
:1018b0008bbf9f000c0007004f06be004f05be0007
:1018c0004f04be000080fa0000000600010007007f
:1018d0000000060090b79f00a1b79f00b2b79f001d
:1018e000c3b79f00000006000100070000000600cb
:1018f0001fb09700afb097003fb19700cfb19700ee
:10190000000006004f2bde0086837300a7b79f0000
:101910004f23de00858242008682720095b79f00c9
:10192000ffaa97004f2bde0004024200060272005d
:1019300084b79f006faa97004f23de008582420084
:1019400086827200f5af9f00e9ff07004f18de00a6
:101950000402420000027200e4af9f00e4ff0700af
:101960000000400081804800020149008381490055
:10197000d8ff07000802be000a03be0000fe2f00c9
:1019800000000600881f780018002000881f7800db
:101990008aff07008f87e9004f04780000000600e7
:1019a000801feb0085ff07008f87e900000006001d
:1019b000889fbe008a9fbe00e00f5000e08f580055
:1019c000e00f5900e08f59000c003d006044b80062
:1019d0006055b8000000540081805c0002015d0089
:1019e00083815d00180020001500070008003d00fd
:1019f000180007000004eb00050037000004eb00ae
:101a00000f00070002003d00120007001800200030
:101a1000dcff0700e00f5400060032006022b8002f
:101a20006033b8000000520081805a0002015b0060
:101a300083815b004f05be004f04be00000006001e
:101a4000e00f5200e08f5a00e00f5b00e08f5b0078
:101a5000000006006044b8006055b800040254005d
:101a600085825c0006035d0087835d000000060040
:101a7000889fbe008a9fbe008c1f7800e00f500038
:101a8000e08f5800e00f5900e08f59000d003d0035
:101a90006044b8006055b8000000540081805c00cc
:101aa00002015d0083815d001c0020000820e10030
:101ab00009a8e1000ab0e1000bb8e1000d003d000b
:101ac000080037000006eb00e00f5200e08f5a00dc
:101ad000e00f5b00e08f5b0006003d006044b80053
:101ae0006055b8000402540085825c0006035d0066
:101af00087835d00aaff0700e00f56000600320052
:101b00006022b8006033b8000000520081805a00a3
:101b100002015b0083815b004f0678004f05be0029
:101b20004f04be0000000600889fbe008a9fbe00d2
:101b30008c1f78000006eb00e00f5000e08f58008b
:101b4000e00f5900e08f590007003d006044b800e5
:101b50006055b8000000540081805c0002015d0007
:101b600083815d001c002000e00f5200e08f5a00ce
:101b7000e00f5b00e08f5b0007003d006044b800b1
:101b80006055b8000402540085825c0006035d00c5
:101b900087835d000c00a2000c000700e00f5600d8
:101ba000060032006022b8006033b8000000520026
:101bb00081805a0002015b0083815b004f06780040
:101bc0004f05be004f04be0000000600889fbe0007
:101bd0008a9fbe008c9fbe000404b8000506b800b2
:101be0008904460060854e000606b8000a054600d6
:101bf000e0854e000706b8008b054600040eb800cd
:101c0000890446000a854e00e0854d00050eb800a7
:101c10000a0546008b854e00060eb8008b0546006f
:101c20000416b8000a0546008b854e000516b8005c
:101c30008b054600041eb8008b0546000800be0058
:101c40000a01be004f06be004f05be004f04be0095
:041c5000000006008a
:020000040000fa
:101c54000a0a00000a5200004f4200004f540000dc
:101c6400204f00004e4c0000494e0000450a000081
:101c74000a000000456e0000746500007220000038
:101c84004d6f0000646500002e2000002841000014
:101c940029750000746f00006e6f00006d6f000006
:101ca40075730000206f00007220000028430000bc
:101cb400296f00006e740000726f00006c6c0000ed
:101cc400656400003a20000000250000630a00005b
:101cd4000d00000041750000746f00006e6f00007d
:101ce4006d6f000075730000204d00006f640000ec
:101cf40065200000536500006c65000063740000fb
:101d0400656400002100000041750000746f00004c
:101d1400005000007265000073730000202800006a
:101d2400542900006f670000676c00006520000004
:101d3400746f00002073000074610000727400006e
:101d44002f730000746f0000702000006f72000099
:101d5400202800005129000075690000743a000031
:101d640020000000436f00006e740000726f0000da
:101d74006c6c000065640000204d00006f6400007e
:101d840065200000536500006c650000637400006a
:101d94006564000021000000436f00006e740000c1
:101da400726f00006c000000557300006520000095
:101db4002831000029200000746f00002053000027
:101dc40074610000727400002c28000032290000a5
:101dd400207400006f20000072650000766500002a
:101de40072730000652c00002028000033290000d5
:101df400207400006f200000737400006f700000f6
:101e04002c2000006f7200002028000051290000df
:101e140075690000742e0000005500007365000011
:101e24002028000034290000207400006f200000e6
:101e34007665000065720000204c000065660000b5
:101e4400742e000020550000736500002028000057
:101e540036290000207400006f2000007665000021
:101e64006572000020520000696700006874000079
:101e74002e0000000a0a00000a4900006e760000e5
:101e8400616c000069640000204d00006f64000074
:101e940065200000536500006c6500006374000059
:101ea40065640000210a00000a0000000a0a00001c
:101eb4000a4500006e640000696e0000672000009f
:101ec4002841000029750000746f00006e6f000047
:101ed4006d6f000075730000210a00000a00000005
:101ee4000a0a00000a4500006e640000696e0000e2
:101ef4006720000028430000296f00006e74000072
:101f0400726f00006c6c000065640000210a000020
:041f14000a000000bf
:020000040000fa
:101f18004e00fa000002eb00240798000002eb00d4
:101f2800440798000002eb00540798000002eb00f9
:101f380064079800e4002000240c8800e4002000d6
:101f4800540c8800e4002000840c88000002eb0098
:101f5800140c88000002eb00440c88000002eb001f
:101f6800740c880004022800940888000002eb0022
:101f78005408880004202000740888008500a900ff
:101f88009500a9007302070065198000e4ff2f007f
:101f98000482620064198800c403200014198800b0
:101fa80014d0200024198800440e22000419880047
:101fb8000002eb00441988000002eb008419880035
:101fc80021e3a800c262a900c062a90025358000eb
:101fd80004fe2f00048262009400b30024358800b8
:101fe8004536800004fe2f00048262003400b300ee
:101ff80044368800f40520004411880004002800b5
:102008000411880004442000141188008560a90088
:10201800a0e2280085f90700c4e32800841f78009f
:102028008cf907008f87e9000002eb00040c880098
:102038000002eb00340c88000300370000000000a9
:102048000100370000000000250480000480200003
:1020580004826200e00f5200250132003411800032
:10206800740798004e029000e00f52005e003a009c
:10207800fe02900014042000848f520004003200f5
:10208800fe02900014062000848f520014003a00cb
:102098007e029000841f780074e62800841f780070
:1020a8006cf90700e4875700c0e628005ff90700cd
:1020b8008040eb000040eb007502070060e8280054
:1020c80090020700b4e82800841f780061f907002f
:1020d8008f87e90014002000440798004200370069
:1020e800fe02900034042000848f52000400320065
:1020f800fe02900034062000848f520014003a003b
:102108007e039000861f780074e62800841f7800fc
:1021180050f90700e487570040eb280043f907000f
:102128008040eb000040eb0059020700e0ec28007b
:102138007402070060ed28003cf90700f0f0280061
:102148003af90700240020004407980026003700c9
:10215800fe02900014042000848f52001c003a00f4
:10216800fe02900034042000848f520018003a00c8
:10217800fe02900014052000848f520014003a00db
:10218800fe02900044052000848f520010003a009f
:10219800fe02900014062000848f52000c003a00c2
:1021a800fe02900034062000848f520008003a0096
:1021b800fe02900014062000848f520004003a00aa
:1021c800fe02900044072000848f5200060032006f
:1021d800c0f3280015f90700c4e32800841f78001d
:1021e8001cf907008f87e9004e029000e10f5200aa
:1021f8001e003a00fe02900044052000848f520021
:1022080004003200fe02900044072000848f520030
:1022180002003a004400200024408800fe0290009a
:1022280014052000848f520004003200fe02900042
:1022380014072000848f52000c003a000002eb00c3
:10224800040c88000002eb00340c88000002eb004c
:102258004407980080f52800f4f80700c4e3280034
:10226800841f7800fbf807008f87e9004e02900072
:10227800e20f52009d003a00fe0290001403200075
:10228800848f52001e003a001536800004fe2f008d
:10229800048262002401b3001436880015368000d9
:1022a800f40f2e00848262000440210005027200af
:1022b800143688005536800004fe2f000482620020
:1022c8003401b3005436880055368000f40f2e00d0
:1022d800848262000440210005027200543688009e
:1022e8001400200054079800140020006407980088
:1022f800d43f2000040c8800d43f2000340c880010
:10230800fe02900034032000848f520004003a003b
:102318000002eb00040c88000002eb00340c88007b
:10232800fe02900064032000848f520019003a00d6
:102338005e0290004415b000540798006e029000a9
:102348004415b10064079800de029000c43f2000e5
:10235800848f520002003400c43f200054079800c4
:102368006e029000e00f520002003d0014002000b1
:1023780064079800c53f20005e0290000482520066
:10238800040c8800c53f20006e02900004825200b1
:10239800340c8800fe02900044032000848f520011
:1023a80019003a005e0290004415b10054079800e5
:1023b8006e0290004415b000640798005e02900019
:1023c800e00f520002003d0014002000540798005e
:1023d800ee029000c43f2000848f520002003400b7
:1023e800c43f200064079800c53f20005e029000ab
:1023f80004825200040c8800c53f20006e02900041
:1024080004825200340c8800fe029000240320004d
:10241800848f52001e003a001536800004fe2f00fb
:10242800048262004401b300143688001536800027
:10243800f40f2e008482620004202100050272003d
:10244800143688005536800004fe2f00048262008e
:102458004401b3005436880055368000f40f2e002e
:10246800848262000430210005027200543688001c
:1024780014002000540798001400200064079800f6
:10248800d43f2000040c8800d43f2000340c88007e
:10249800fe02900014052000848f520004003200d0
:1024a800fe02900014072000848f52000f003a00ab
:1024b8000002eb00540798000002eb006407980044
:1024c8000002eb00040c88000002eb00340c8800ca
:1024d8000002eb00440798005901070020f7280084
:1024e80052f80700c0e3280050f807008560a900eb
:1024f8004e029000e10f5200d0fe3a0024408000c6
:10250800cfa2de004600200007002000860f520000
:10251800878f5a00cbfe3e0004600100040037009c
:102528004d0037006a0037008700370095003700f4
:1025380000000000250480000400220004826200dc
:10254800e00f5200fbff32000430200034079800ef
:1025580085a0a9006022b800048fbe000002eb002d
:1025680024079800140037003e0290009402780077
:102578002e0290000402420004024700e402b00068
:10258800050a78003e0290000482e80034079800ab
:102598002e029000040242000402470074129000c8
:1025a800050020001e0f42005e974a002e02900090
:1025b8000402e800240798002e029000ef0f520052
:1025c800e9ff36001e02be004c2bdd004422de006f
:1025d80004027300c42ade00040f9800f53f2000af
:1025e8000e0a900004825200040c88000e0a900023
:1025f800340c88008e0a9000f41f2000848f52004b
:1026080008003400050c80004406200004aab90024
:10261800040278004922de00140f980044062000c6
:10262800240f98008e0a9000f41f2000848f520017
:1026380008003c0044062000140f9800350c800068
:102648004406200004aab900040278004922de00ea
:10265800240f980053003700c262a9001536800085
:1026680004fe2f00048262002401b300143688009f
:1026780015368000f40f2e00848262000440210089
:1026880005027200143688005536800004fe2f00bb
:10269800048262003401b300543688005536800045
:1026a800f40f2e00848262000440210005027200ab
:1026b80054368800340020000440880014002000ac
:1026c800144088000002eb002440880035003700e1
:1026d800c262a9001536800004fe2f000482620041
:1026e8004401b3001436880015368000f40f2e001c
:1026f80084826200042021000502720014368800da
:102708005536800004fe2f00048262004401b300a5
:102718005436880055368000f40f2e0084826200fb
:10272800043021000502720054368800340020006d
:102738000440880024002000144088000002eb00b8
:1027480024408800170037000002eb00040c8800c2
:102758000002eb00340c880014408000e10f5200a6
:1027680002003a0024002000044088001440800041
:10277800e20f520002003a001400200004408800d2
:102788000800370055168000040220000482620009
:10279800e00f52000200320004408000244088000c
:1027a8000000000028fe37000000fa002043a900be
:1027b80085a0a9000080fa0000000600801f7800ac
:1027c8003400f80000002000a00188000000fa0092
:1027d8008500a9000080fa003400f9004f00780055
:1027e800004006000200fa00000f78000002eb002b
:1027f800340888001e027800040242006408880039
:1028080084e0a90004012800840888000000000072
:10281800250480000408200004826200e00f5200b2
:10282800fbff320011e1a9000080fa000000060059
:102838000400fa00004f7800110798009e427800c3
:1028480061c262000482fb00610262004722dd006f
:1028580066168000f5f72f008502630005027200f6
:10286800641688001e009000deff0700ccc2a80096
:102878001e009000dbff0700ccc2a9001e009000dc
:10288800d8ff0700cce2a9000080fa00000006008b
:102898000c00fa006047980041079800520798001a
:1028a800f4ff2000040f78006e4290008482fb0041
:1028b800040f200004826200140798006e42900002
:1028c8000482fb006f026200240798001e02900039
:1028d8004822dd00140798002e0290004c22dd00eb
:1028e80024079800f4ff20001e0f62001e029000cb
:1028f8001e0f72001e027800641688004e029000b7
:1029080004427800de00900004407800c8ff070009
:10291800f4ff20001e0f62002e0290001e0f7200ae
:102928001e027800641688004e0290000442780067
:10293800de00900004407800bdff070065168000a7
:10294800f4ff200004826200641688000080fa0008
:10295800000006000000fa00c9e2a900c9c2a900e7
:10296800c9a2a900c982a900c8e2a900c8c2a900d1
:1029780065168000f4ff2000048262006416880057
:10298800cce2a900ccc2a90080a9230095ff0700ca
:1029980065168000f4ff2000848262000400230092
:1029a8000502720064168800410021000040eb0017
:1029b8009fff070065168000f4ff200084826200f4
:1029c80004002300050272006416880041062000f6
:1029d8000040eb0096ff0700420620008000eb0055
:1029e80020c3b300aaff0700820220008000eb008a
:1029f80080c2b300a6ff0700820220008000eb001f
:102a080080c0b300a2ff0700c25d20008000eb0079
:102a180010c0b3009eff0700820220008000eb0078
:102a280060c0b3009aff0700820220008000eb001c
:102a3800c0c0b30096ff07000080fa00000006003f
:102a48000000fa00426a20008000eb0010c0b300ca
:102a58008fff07000080fa00000006000200fa005d
:102a6800004f78001e427800e2022000110020008a
:102a78000440780086ff070065168000f4ff2000f8
:102a880004826200641688000080fa0000000600d4
:102a98000400fa0020479800314798000002eb0034
:102aa800040f78002e429000e04f520003003a00d5
:102ab8000002eb00040f7800050037002e4290005a
:102ac800e14f520002003a0004042000040f78008d
:102ad8003e4290000482fb001e0f420004082000c2
:102ae8001e0f42001e027800044278008202200075
:102af8008000eb000440780065ff07000080fa00c2
:102b0800000006000200fa00000f780005003700f8
:102b18001e0278001442780004407800cfff0700b6
:102b28001e0fe8001e02780014427800e04f5200a1
:0c2b3800f7ff3a000080fa0000000600e1
:020000040000fa
:102b4400040800000200000000000000000800006b
:102b54000400000002000000010001000000000069
:102b6400d00800002600000002000000f708000062
:102b740000f708000900000000020000f908000046
:102b840000f908000e02010000000000000000002f
:102b9400000000000602020000000000d00800004f
:102ba400f60800000600000000000000060800000f
:102bb400ca00000002000000303132003334350016
:102bc400363738003941420043444500460030005e
:102bd40031323300343536003738390061626300ee
:102be4006465660000286e00756c6c0029000000a6
:102bf400010000000000000000000a0000000000c6
:102c0400000000000064000000000000000000005c
:102c1400e80300000000000000001000270000008e
:102c24000000000000a08600010000000000000079
:102c340040420f0000000000000080009698000051
:102c4400000000000000e100f505000000000000a5
:102c540000ca9a003b00000000000000e40b54008e
:102c6400020000000000e8007648170000000000a1
:102c74000010a500d4e8000000000000a0724e007f
:102c840018090000000040007a10f3005a00000008
:102c94000080c600a47e8d000300000000c16f0008
:102ca400f2862300000000008a5d7800456301007d
:102cb40000006400a7b3b600e00d000000e889003e
:102cc4000423c7008a000000fc0800000200000082
:0c2cd400020000000100000000000000f1
:020000040000fa
:020000040001f9
:0457f800ad7b000085
:020000040000fa
:020000040001f9
:0457fc003f3f00002b
:00000001FF
